{
  "contractName": "contact",
  "abi": [
    {
      "inputs": [],
      "stateMutability": "nonpayable",
      "type": "constructor"
    },
    {
      "inputs": [
        {
          "internalType": "string",
          "name": "name",
          "type": "string"
        },
        {
          "internalType": "string",
          "name": "mobile",
          "type": "string"
        },
        {
          "internalType": "string",
          "name": "email",
          "type": "string"
        },
        {
          "internalType": "string",
          "name": "org",
          "type": "string"
        }
      ],
      "name": "insertContact",
      "outputs": [],
      "stateMutability": "nonpayable",
      "type": "function"
    },
    {
      "inputs": [],
      "name": "viewContacts",
      "outputs": [
        {
          "internalType": "string[]",
          "name": "",
          "type": "string[]"
        },
        {
          "internalType": "string[]",
          "name": "",
          "type": "string[]"
        },
        {
          "internalType": "string[]",
          "name": "",
          "type": "string[]"
        },
        {
          "internalType": "string[]",
          "name": "",
          "type": "string[]"
        }
      ],
      "stateMutability": "view",
      "type": "function",
      "constant": true
    }
  ],
  "bytecode": "0x608060405234801561001057600080fd5b50336000806101000a81548173ffffffffffffffffffffffffffffffffffffffff021916908373ffffffffffffffffffffffffffffffffffffffff160217905550610d76806100606000396000f3fe608060405234801561001057600080fd5b50600436106100365760003560e01c80636b845b021461003b5780639bc06fba14610057575b600080fd5b6100556004803603810190610050919061070f565b610078565b005b61005f6101f5565b60405161006f9493929190610927565b60405180910390f35b60058360405161008891906109c4565b908152602001604051809103902060009054906101000a900460ff16156100e4576040517f08c379a00000000000000000000000000000000000000000000000000000000081526004016100db90610a38565b60405180910390fd5b6001849080600181540180825580915050600190039060005260206000200160009091909190915090816101189190610c6e565b5060028390806001815401808255809150506001900390600052602060002001600090919091909150908161014d9190610c6e565b506003829080600181540180825580915050600190039060005260206000200160009091909190915090816101829190610c6e565b506004819080600181540180825580915050600190039060005260206000200160009091909190915090816101b79190610c6e565b5060016005846040516101ca91906109c4565b908152602001604051809103902060006101000a81548160ff02191690831515021790555050505050565b6060806060803373ffffffffffffffffffffffffffffffffffffffff1660008054906101000a900473ffffffffffffffffffffffffffffffffffffffff1673ffffffffffffffffffffffffffffffffffffffff161461025357600080fd5b600160026003600483805480602002602001604051908101604052809291908181526020016000905b8282101561032857838290600052602060002001805461029b90610a87565b80601f01602080910402602001604051908101604052809291908181526020018280546102c790610a87565b80156103145780601f106102e957610100808354040283529160200191610314565b820191906000526020600020905b8154815290600101906020018083116102f757829003601f168201915b50505050508152602001906001019061027c565b50505050935082805480602002602001604051908101604052809291908181526020016000905b828210156103fb57838290600052602060002001805461036e90610a87565b80601f016020809104026020016040519081016040528092919081815260200182805461039a90610a87565b80156103e75780601f106103bc576101008083540402835291602001916103e7565b820191906000526020600020905b8154815290600101906020018083116103ca57829003601f168201915b50505050508152602001906001019061034f565b50505050925081805480602002602001604051908101604052809291908181526020016000905b828210156104ce57838290600052602060002001805461044190610a87565b80601f016020809104026020016040519081016040528092919081815260200182805461046d90610a87565b80156104ba5780601f1061048f576101008083540402835291602001916104ba565b820191906000526020600020905b81548152906001019060200180831161049d57829003601f168201915b505050505081526020019060010190610422565b50505050915080805480602002602001604051908101604052809291908181526020016000905b828210156105a157838290600052602060002001805461051490610a87565b80601f016020809104026020016040519081016040528092919081815260200182805461054090610a87565b801561058d5780601f106105625761010080835404028352916020019161058d565b820191906000526020600020905b81548152906001019060200180831161057057829003601f168201915b5050505050815260200190600101906104f5565b505050509050935093509350935090919293565b6000604051905090565b600080fd5b600080fd5b600080fd5b600080fd5b6000601f19601f8301169050919050565b7f4e487b7100000000000000000000000000000000000000000000000000000000600052604160045260246000fd5b61061c826105d3565b810181811067ffffffffffffffff8211171561063b5761063a6105e4565b5b80604052505050565b600061064e6105b5565b905061065a8282610613565b919050565b600067ffffffffffffffff82111561067a576106796105e4565b5b610683826105d3565b9050602081019050919050565b82818337600083830152505050565b60006106b26106ad8461065f565b610644565b9050828152602081018484840111156106ce576106cd6105ce565b5b6106d9848285610690565b509392505050565b600082601f8301126106f6576106f56105c9565b5b813561070684826020860161069f565b91505092915050565b60008060008060808587031215610729576107286105bf565b5b600085013567ffffffffffffffff811115610747576107466105c4565b5b610753878288016106e1565b945050602085013567ffffffffffffffff811115610774576107736105c4565b5b610780878288016106e1565b935050604085013567ffffffffffffffff8111156107a1576107a06105c4565b5b6107ad878288016106e1565b925050606085013567ffffffffffffffff8111156107ce576107cd6105c4565b5b6107da878288016106e1565b91505092959194509250565b600081519050919050565b600082825260208201905092915050565b6000819050602082019050919050565b600081519050919050565b600082825260208201905092915050565b60005b8381101561084c578082015181840152602081019050610831565b60008484015250505050565b600061086382610812565b61086d818561081d565b935061087d81856020860161082e565b610886816105d3565b840191505092915050565b600061089d8383610858565b905092915050565b6000602082019050919050565b60006108bd826107e6565b6108c781856107f1565b9350836020820285016108d985610802565b8060005b8581101561091557848403895281516108f68582610891565b9450610901836108a5565b925060208a019950506001810190506108dd565b50829750879550505050505092915050565b6000608082019050818103600083015261094181876108b2565b9050818103602083015261095581866108b2565b9050818103604083015261096981856108b2565b9050818103606083015261097d81846108b2565b905095945050505050565b600081905092915050565b600061099e82610812565b6109a88185610988565b93506109b881856020860161082e565b80840191505092915050565b60006109d08284610993565b915081905092915050565b600082825260208201905092915050565b7f5468697320636f6e7461637420616c7265616479206578697374730000000000600082015250565b6000610a22601b836109db565b9150610a2d826109ec565b602082019050919050565b60006020820190508181036000830152610a5181610a15565b9050919050565b7f4e487b7100000000000000000000000000000000000000000000000000000000600052602260045260246000fd5b60006002820490506001821680610a9f57607f821691505b602082108103610ab257610ab1610a58565b5b50919050565b60008190508160005260206000209050919050565b60006020601f8301049050919050565b600082821b905092915050565b600060088302610b1a7fffffffffffffffffffffffffffffffffffffffffffffffffffffffffffffffff82610add565b610b248683610add565b95508019841693508086168417925050509392505050565b6000819050919050565b6000819050919050565b6000610b6b610b66610b6184610b3c565b610b46565b610b3c565b9050919050565b6000819050919050565b610b8583610b50565b610b99610b9182610b72565b848454610aea565b825550505050565b600090565b610bae610ba1565b610bb9818484610b7c565b505050565b5b81811015610bdd57610bd2600082610ba6565b600181019050610bbf565b5050565b601f821115610c2257610bf381610ab8565b610bfc84610acd565b81016020851015610c0b578190505b610c1f610c1785610acd565b830182610bbe565b50505b505050565b600082821c905092915050565b6000610c4560001984600802610c27565b1980831691505092915050565b6000610c5e8383610c34565b9150826002028217905092915050565b610c7782610812565b67ffffffffffffffff811115610c9057610c8f6105e4565b5b610c9a8254610a87565b610ca5828285610be1565b600060209050601f831160018114610cd85760008415610cc6578287015190505b610cd08582610c52565b865550610d38565b601f198416610ce686610ab8565b60005b82811015610d0e57848901518255600182019150602085019450602081019050610ce9565b86831015610d2b5784890151610d27601f891682610c34565b8355505b6001600288020188555050505b50505050505056fea2646970667358221220f7f6d507d9c45111f0b84ef99e0a03a3d7f0de51863be0077cd7b01ec92c0ae564736f6c63430008130033",
  "immutableReferences": {},
  "source": "// SPDX-License-Identifier: MIT\npragma solidity >=0.4.22 <0.9.0;\n\ncontract contact {\n\n  address owner;\n\n    string[] _names;\n    string[] _mobiles;\n    string[] _emails;\n    string[] _organizations;\n\n    mapping (string => bool) _contacts;\n  constructor() public {\n     owner=msg.sender;\n    \n  }\n  modifier onlyOwner {\n    require(owner==msg.sender);\n    _;\n  }\n function insertContact(string memory name, string memory mobile, string memory email, string memory org) public {\n    require(!_contacts[mobile], \"This contact already exists\");\n    _names.push(name);\n    _mobiles.push(mobile);\n    _emails.push(email);\n    _organizations.push(org);\n    _contacts[mobile] = true;\n}\n\n  //read contact from blockchain\n  function viewContacts() onlyOwner public view returns(string[] memory,string[] memory,string[] memory,string[] memory){\n      return(_names,_mobiles,_emails,_organizations);\n  }\n}\n",
  "sourcePath": "C:\\Users\\Dell\\Desktop\\contact-Dapp\\contracts\\contact.sol",
  "compiler": {
    "name": "solc",
    "version": "0.8.19+commit.7dd6d404.Emscripten.clang"
  },
  "schemaVersion": "3.4.16",
  "updatedAt": "2024-09-09T18:51:04.789Z",
  "networkType": "ethereum",
  "devdoc": {
    "kind": "dev",
    "methods": {},
    "version": 1
  },
  "userdoc": {
    "kind": "user",
    "methods": {},
    "version": 1
  }
}